:020000040800F2
:10000000C80C002009070008450200084702000844
:100010004B0200084F0200085302000800000000D5
:10002000000000000000000000000000570200086F
:1000300059020008000000005B0200085D02000891
:1000400023070008230700082307000823070008E8
:1000500023070008230700082307000823070008D8
:1000600023070008230700082307000823070008C8
:1000700023070008230700082307000823070008B8
:1000800023070008230700082307000823070008A8
:100090002307000823070008230700082307000898
:1000A0002307000823070008230700082307000888
:1000B00065710008230700082307000823070008CC
:1000C0002307000823070008230700082307000868
:1000D00023070008A50500082307000823070008D8
:1000E00023070008230700082307000800F002F890
:1000F00000F05AF80AA090E8000C82448344AAF168
:100100000107DA4501D100F04FF8AFF2090EBAE865
:100110000F0013F0010F18BFFB1A43F0010318473B
:10012000C0AA0000E0AA00000A444FF0000C10F83A
:10013000013B13F0070408BF10F8014B1D1108BF65
:1001400010F8015B641E05D010F8016B641E01F805
:10015000016BF9D113F0080F1EBF10F8014BAD1C55
:100160000C1B09D16D1E58BF01F801CBFAD505E073
:1001700014F8016B01F8016B6D1EF9D59142D6D3CD
:10018000704700000023002400250026103A28BFF5
:1001900078C1FBD8520728BF30C148BF0B607047F9
:1001A0001FB51FBD10B510BD07F048F91146FFF788
:1001B000F7FF00F009F807F066F903B4FFF7F2FF64
:1001C00003BC00F095F9000000F08CF94FF4E13029
:1001D00000F09CF904F099FD0D2115A000F02DFA16
:1001E00004F028FC482000F029F905F0C7F94FF485
:1001F0008061134800F023FC44F6206005F0A2F86B
:100200004FF47A7000F034F94FF47A7000F030F95E
:1002100006F05CFF05F0CEF905F050FA05F096FC0B
:1002200006F04CFB03E006F022FB06F0EFFDFAE7D8
:10023000493243B3F5CABCBBAFB3C9B9A60000008D
:1002400000100140704700BFFEE700BFFEE700BF9F
:10025000FEE700BFFEE77047704770477047000039
:100260000CB50020019000906B48006840F480308D
:100270006949086000BF6848006800F400300090D9
:100280000198401C0190009818B90198B0F5A06F32
:10029000F1D16148006810F4003F02D001200090C5
:1002A00001E0002000900098012842D15B480068DE
:1002B00040F01000594908600846006820F003002B
:1002C00008600846006840F0020008605248406834
:1002D000514948600846406848600846406840F414
:1002E000806048600846406820F47C1048600846FA
:1002F000406840F4E81048600846006840F08070AC
:10030000086000BF4448006810F0007FFAD04248FF
:10031000406820F00300404948600846406840F0CB
:100320000200486000BF3C48406800F00C0008280C
:10033000F9D10CBD10B5FFF793FF10BD10B53648CD
:10034000006840F0010034490860084640683449BC
:1003500008403149486008460068324908402E4943
:1003600008600846006820F480200860084640685D
:1003700020F4FE0048604FF41F008860FFF7DAFFAA
:100380004FF000602849086010BD10B50021002022
:100390000022214B5B6803F00C0121B1042906D037
:1003A000082928D107E0214B214C236027E01F4B6F
:1003B0001F4C236023E0184B5B6803F47010164B4E
:1003C0005B6803F48032022303EB904022B9194B9F
:1003D0004343174C23600DE00F4B5B6813F4003F61
:1003E00004D0144B4343124C236003E00F4B4343B0
:1003F0000F4C236003E00D4B0D4C236000BF00BF8A
:10040000054B5B68C3F303130B4CE15C084B1B68A3
:10041000CB40074C236010BD00100240002002407A
:100420000000FFF8FFFFF6FE08ED00E000127A0082
:100430000000002000093D000400002010B5044623
:100440006FF0040000F0D0F9E11704EB5171C1F333
:10045000C701224A11701046007800EB4001C1EB41
:10046000C0104FF6FF7101EAC0001D49088010BDA1
:1004700001461B4A12884A434FF0E0235A6100228A
:100480009A6101221A6100BF4FF0E022106910F05A
:10049000010F02D010F4803FF6D000224FF0E0238D
:1004A0001A619A61704701460C4A12784A434FF02C
:1004B000E0235A6100229A6101221A6100BF4FF0C5
:1004C000E022106910F0010F02D010F4803FF6D046
:1004D00000224FF0E0231A619A6170471400002057
:1004E0001600002010B54FF4A06000F02DF910BDEB
:1004F000014600BF704700BF7F4A128812F0400FCC
:10050000FAD0C2B27C4B1B1D1A80704710B586B062
:100510000446012144F2050000F09AFC4FF40070FB
:10052000ADF8140003208DF8160018208DF8170080
:1005300005A9724800F0D6F94FF48060ADF81400B8
:1005400004208DF8170005A96C4800F0CBF9252090
:100550008DF8000003208DF801008DF802000120C5
:100560008DF80300684600F0F4F801940020ADF81F
:100570000800ADF80A00ADF80C00ADF810000C2032
:10058000ADF80E0001A95C4801F01BFC012240F20D
:100590002551594801F0ADFC0121574801F09DFC5F
:1005A00006B010BD10B540F22551534801F086FD4C
:1005B00010B3514801F002FDC4B25148007810F068
:1005C000800F2BD14E48007810F0400F0CD00A2C31
:1005D00003D000204A49087020E04948007840F0E4
:1005E00080004749087019E00D2C06D14448007876
:1005F00040F040004249087010E04148007800F0A7
:100600003F0040490C543E480078401C3C4908706B
:10061000084600783F2801DD0020087010BD10B5A5
:1006200004462146344801F0C5FC00BF8021324811
:1006300001F02EFD0028F9D010BD70B506460D461C
:10064000402D00DD40250D20FFF7E9FF002404E0E8
:10065000305DFFF7E4FF601CC4B2AC42F8DB0D2054
:10066000FFF7DDFF70BD70B5044604F00F052609E5
:100670000A2E05DA06F130011F4801F09BFC04E068
:1006800006F137011C4801F095FC00BF80211A4893
:1006900001F0FEFC0028F9D00A2D05DA05F1300141
:1006A000154801F087FC04E005F13701124801F01C
:1006B00081FC00BF8021104801F0EAFC0028F9D03D
:1006C00070BD70B506460C46402C00DD40240D2060
:1006D000FFF7A5FF3A20FFF7A2FF002506E0611B08
:1006E000491E705CFFF7BFFF681CC5B2A542F6DB70
:1006F0002F20FFF794FF70BD003801400008014033
:1007000018000020040600200948804709480047D7
:10071000FEE7FEE7FEE7FEE7FEE7FEE7FEE7FEE7B1
:10072000FEE7FEE704480549054A064B704700000E
:100730003D030008ED000008C8060020C80C00209A
:10074000C8080020C808002031490143314A11601F
:10075000704770B5002100230F22C4780CB32D4CD4
:10076000246804F4E064C4F5E064210AC1F10403E0
:10077000CA40447804FA03F1847814402143090103
:10078000254C0678A155047804F01F050124AC40DF
:1007900005786D114FF0E02606EB8505C5F80041A0
:1007A00009E0047804F01F050124AC401B4D0678D5
:1007B000761145F8264070BD194A0A400243154B90
:1007C0001B1F1A60704739B1124A121D126802438A
:1007D000104B1B1D1A6006E00E4A121D1268824360
:1007E0000C4B1B1D1A607047042808D14FF0E02104
:1007F000096941F004014FF0E022116107E04FF078
:10080000E021096921F004014FF0E02211617047F5
:100810000000FA050CED00E000E400E080E100E0FB
:1008200080FFFF1F10B50446CA48844208D1012149
:10083000042000F027FB0021042000F023FB46E009
:10084000C548844208D10121082000F01BFB00218B
:10085000082000F017FB3AE0C048844208D101218B
:10086000102000F00FFB0021102000F00BFB2EE009
:10087000BB48844208D10121202000F003FB002165
:10088000202000F0FFFA22E0B648844208D101217E
:10089000402000F0F7FA0021402000F0F3FA16E0C3
:1008A000B148844208D10121802000F0EBFA0021F8
:1008B000802000F0E7FA0AE0AC48844207D1012129
:1008C000801500F0DFFA0021A01500F0DBFA10BD62
:1008D00010B50121084600F0D5FA0021012000F0F2
:1008E000D1FA10BD2DE9F041024600250026002076
:1008F00000230024002791F803C00CF00F0591F8A5
:1009000003C01CF0100F03D091F802C04CEA05059B
:1009100091F800C0BCF1000F31D0146800202BE02A
:100920004FF0010C0CFA00F3B1F800C00CEA03061A
:100930009E4220D183004FF00F0C0CFA03F7BC430A
:1009400005FA03FC4CEA040491F803C0BCF1280F3B
:1009500006D14FF0010C0CFA00FCC2F814C00AE0FA
:1009600091F803C0BCF1480F05D14FF0010C0CFA0F
:1009700000FCC2F810C0401C0828D1D31460B1F8A4
:1009800000C0BCF1FF0F34DD546800202EE000F100
:10099000080C4FF0010808FA0CF3B1F800C00CEA9B
:1009A00003069E4221D183004FF00F0C0CFA03F78F
:1009B000BC4305FA03FC4CEA040491F803C0BCF103
:1009C000280F05D100F1080C08FA0CF8C2F81480C1
:1009D00091F803C0BCF1480F07D100F1080C4FF0AB
:1009E000010808FA0CF8C2F81080401C0828CED381
:1009F0005460BDE8F0814FF6FF71018002218170E3
:100A00000421C17070470246002093680B4201D058
:100A1000012000E0002070470146886880B27047DE
:100A200002460020D3680B4201D0012000E00020E4
:100A300070470146C86880B27047016170474161E4
:100A400070470AB1016100E041617047C1607047C1
:100A50004FF480320A4382618161826182698269D6
:100A6000704702460020424B18684FF680731840CA
:100A700040EA021008433E4B186070473D49C86188
:100A80007047F0B50A46002300240021002500F03D
:100A90000046B6F1004F02D1354EF16901E0344E07
:100AA0007168C0F3034583B200F44016B6F5401FE9
:100AB00008D121F070612E4E766826F070662C4FBA
:100AC0007E6012E000F48016B6F5801F06D1032682
:100AD00006FA05F4A14341F0706106E0460D3601C7
:100AE00003FA06F6B14341F0706122B1460D3601BA
:100AF00003FA06F6314300F00046B6F1004F02D18A
:100B00001B4EF16101E01A4E7160F0BD30B500225C
:100B10008B071C0F0F2303FA04F2154B08338C10BC
:100B200053F824309343124C08348D1044F8253088
:100B300023468C1053F824308C07240F00FA04F459
:100B400023430B4C08348D1044F8253030BD0A493E
:100B50000860704700080140000C0140001001408F
:100B60000014014000180140001C01400020014019
:100B70000000014000002042DC002042DD48006807
:100B800040F00100DB49086008464068DA49084047
:100B9000D849486008460068D8490840D5490860E7
:100BA0000846006820F4802008600846406820F469
:100BB000FE0048604FF41F0088607047CD49096807
:100BC00021F48031CB4A11601146096821F480215B
:100BD0001160B0F5803F03D0B0F5802F0ED106E054
:100BE000C449096841F48031C24A116007E0C14933
:100BF000096841F4A021BF4A116000E000BF00BFB6
:100C0000704710B501460022002300204A11012A36
:100C100002D1B84C236806E0022A02D1B54C236AFF
:100C200001E0B44C636A01F01F02012494401C42AD
:100C300001D0012000E0002010BD38B50020009058
:100C40000024002500BF3120FFF7DBFF0546009898
:100C5000401C00900098B0F5A06F01D0002DF2D09C
:100C60003120FFF7CEFF08B1012400E00024204628
:100C700038BD014600209F4A106820F0F80040EA85
:100C8000C100106070479E4908607047024600200E
:100C9000984B586820F47C1042EA01031843954BA6
:100CA0005860704796490866704701460020914A8F
:100CB000506820F003000843506070478D4840683A
:100CC00000F00C007047014600208A4A506820F06E
:100CD000F00008435060704701460020854A506884
:100CE00020F4E06008435060704701460020814ACC
:100CF000506820F4605040EAC1005060704729B14C
:100D00007C4A527A02437B4B5A7204E0794A527A07
:100D10008243784B5A7270477A490860704701469F
:100D20000020744A506820F44040084350607047E7
:100D30000021754A11706F4A82F82010012802D0F4
:100D4000042808D103E001216F4A117004E0052155
:100D50006D4A117000E000BF00BF70476B4908602A
:100D600070476449096A0143624A116270476749E2
:100D700044390860704730B5002100220024002368
:100D80005C4D6D6805F00C0121B1042905D00829DE
:100D900023D105E05E4D056022E05D4D05601FE05A
:100DA000544D6D6805F47012524D6D6805F4803431
:100DB000022505EB92421CB9564D554305600BE0E8
:100DC0004C4D6D6815F4003F03D0524D55430560FE
:100DD00002E04F4D5543056002E04D4D056000BFF8
:100DE00000BF444D6D6805F0F00109094A4D6B5C88
:100DF0000568DD4045603F4D6D6805F4E061090A16
:100E0000454D6B5C4568DD4085603A4D6D6805F485
:100E10006051C90A404D6B5C4568DD40C560354D89
:100E20006D6805F44041890B3C4D6B5CC568B5FBB2
:100E3000F3F5056130BD29B12E4A526902432D4BAD
:100E40005A6104E02B4A526982432A4B5A61704727
:100E500029B1284A92690243264B9A6104E0254A47
:100E600092698243234B9A61704729B1214AD26922
:100E70000243204BDA6104E01E4AD26982431D4BD3
:100E8000DA61704729B11B4AD2680243194BDA6014
:100E900004E0184AD2688243164BDA60704729B1E1
:100EA000144A12690243134B1A6104E0114A126991
:100EB0008243104B1A6170471449403908607047EB
:100EC0000F49C86470470B49C87170470948406AA8
:100ED00040F0807007494862704701460020054A8B
:100EE00092680A4201D0012000E0002070470149C9
:100EF00088727047001002400000FFF8FFFFF6FE06
:100F000000004242D8004242201002408004424287
:100F100000127A0000093D0020000020300000206F
:100F200010B50446FE48844208D10121C014FFF7E1
:100F3000A9FF0021E014FFF7A5FFC4E0B4F1804F42
:100F400008D101210846FFF7AAFF00210120FFF781
:100F5000A6FFB8E0F348844208D101210220FFF740
:100F60009EFF00210220FFF79AFFACE0EE4884428A
:100F700008D101210420FFF792FF00210420FFF790
:100F80008EFFA0E0E948844208D101210820FFF744
:100F900086FF00210820FFF782FF94E0E4488442A6
:100FA00008D101211020FFF77AFF00211020FFF760
:100FB00076FF88E0DF48844208D101212020FFF736
:100FC0006EFF00212020FFF76AFF7CE0DA488442B0
:100FD00008D101214014FFF755FF00216014FFF7ED
:100FE00051FF70E0D548844209D10121C804FFF7C0
:100FF00049FF00214FF40020FFF744FF63E0D04891
:10100000844209D101210805FFF73CFF00214FF47C
:101010008010FFF737FF56E0CA48844209D101210A
:101020004805FFF72FFF00214FF40010FFF72AFFBC
:1010300049E0C548844208D101214020FFF72FFF35
:1010400000214020FFF72BFF3DE0C048844208D13B
:1010500001218020FFF723FF00218020FFF71FFFE1
:1010600031E0BB48844208D101218015FFF717FF0A
:101070000021A015FFF713FF25E0B648844209D1EF
:1010800001210804FFF7FEFE00214FF48030FFF736
:10109000F9FE18E0B048844209D101214804FFF765
:1010A000F1FE00214FF40030FFF7ECFE0BE0AB48FF
:1010B000844208D101218804FFF7E4FE00214FF4A7
:1010C0008020FFF7DFFE10BD00220288944B98427B
:1010D0000ED0994B98420BD0B0F1804F08D0914B75
:1010E000984205D0904B984202D0904B984204D140
:1010F0004FF68F731A404B881A438D4B984207D096
:101100008C4B984204D04FF6FF431A40CB881A43C9
:1011100002808B8883850B880385814B98420BD096
:10112000854B984208D08B4B984205D08A4B984209
:1011300002D08A4B984201D10B7A03860123838225
:10114000704770B5002400220023058C4FF6FE7610
:1011500035400584028C8388048B4FF68F752C40B4
:10116000B51E2C400D882C43751E2A400D892A433C
:101170004D882A436A4DA8420BD06F4DA84208D033
:10118000744DA84205D0744DA84202D0734DA842B8
:1011900013D14FF6F7752A404D892A434FF6FB7558
:1011A0002A408D882A434FF6FF652B404FF6FF55A6
:1011B0002B408D892B43CD892B4383800483CD889D
:1011C0008586028470BD70B5002400220023058C42
:1011D0004FF6EF7635400584028C8388048B48F601
:1011E000FF752C404FF6FF452C400D884FF6FF76DB
:1011F00006EA05252C434FF6DF752A400D8906EADD
:1012000005152A434D8806EA05152A43444DA84290
:1012100002D0494DA8421DD14FF67F752A404D8915
:101220004FF6FF7606EA05152A434FF6BF752A40AA
:101230008D8806EA05152A434FF6FF352B404FF2FD
:10124000FF752B408D8906EA85052B43CD8906EA7B
:1012500085052B4383800483CD880587028470BD78
:1012600070B5002400220023058C4FF6FF66354040
:101270000584028C8388848B4FF68F752C404FF643
:10128000FC752C400D882C434FF6FF552A400D89E4
:101290004FF6FF7606EA05252A434D8806EA05251E
:1012A0002A431F4DA84202D0234DA8421DD14FF220
:1012B000FF752A404D894FF6FF7606EA05252A4339
:1012C0004FF6FF352A408D8806EA05252A434EF65B
:1012D000FF752B404DF6FF752B408D8906EA0515ED
:1012E0002B43CD8906EA05152B4383808483CD8863
:1012F0008587028470BD70B5002200230024058C10
:101300004EF6FF7635400584038C8488828B48F640
:10131000FF752A404FF6FF452A400D8820E0000067
:10132000002C01400004004000080040000C004078
:10133000001000400014004000340140004C014007
:10134000005001400054014000180040001C0040C3
:10135000002000400040014000440140004801409E
:101360004FF6FF7606EA05252A434DF6FF752B401A
:101370000D8906EA05352B434D8806EA05352B43D2
:10138000FA4DA84202D0FA4DA84208D14BF6FF759B
:101390002C408D894FF6FF7606EA85152C43848014
:1013A0008283CD88A0F84050038470BD828B4FF2B9
:1013B000FF331A408283828B4FF6FF7303EA0123C7
:1013C0001A4382837047F0B50C461546002200216F
:1013D0000026078C4EF6FF7C07EA0C070784828BF9
:1013E000018C4FF6FF7707EA043640F6FF473A4094
:1013F0004FF6FF7707EA05273A434FF6FF7707EAEC
:1014000003373A43D94FB8420ED0D94FB8420BD028
:10141000B0F1804F08D0D74FB84205D0D64FB84270
:1014200002D0D64FB84206D14DF6FF77394046F488
:101430008057394305E047F6FF57394044F4805759
:10144000394382830184F0BD828B4FF6F3731A40D7
:101450008283828B0A4382837047F0B50C4615461F
:10146000002200210026078C4FF6FF6C07EA0C07CC
:101470000784828B018C4FF6FF7707EA04264FF62C
:101480000C773A404FF6FF7707EA03172F433A43AA
:10149000B64FB8420ED0B64FB8420BD0B0F1804F25
:1014A00008D0B44FB84205D0B34FB84202D0B34FC2
:1014B000B84206D14FF6FF57394046F4807739439A
:1014C00005E04FF2FF57394044F480773943828377
:1014D0000184F0BD028B4FF2FF331A400283028B6E
:1014E0004FF6FF7303EA01231A4302837047F0B5F6
:1014F0000C461546002200210026078C4FF6EF7C93
:1015000007EA0C070784028B018C4FF6FF7707EA86
:10151000041640F6FF473A404FF6FF7707EA0337D5
:101520003A434FF6FF7707EA05273A438F4FB84211
:101530000ED08F4FB8420BD0B0F1804F08D08D4FF6
:10154000B84205D08C4FB84202D08C4FB84206D179
:101550004FF6DF77394046F01007394305E04FF684
:101560005F77394044F01007394302830184F0BDAE
:10157000028B4FF6F3731A400283028B0A430283F5
:101580007047F0B50C46154600220021068C4FF638
:10159000FE773E400684028B018C4FF60C7632407B
:1015A0007E1C06EA03162E433243704EB0420ED024
:1015B0006F4EB0420BD0B0F1804F08D06D4EB042AC
:1015C00005D06D4EB04202D06C4EB04206D14FF6FF
:1015D000FD76314044F00106314305E04FF6F576E3
:1015E000314044F00106314302830184F0BD70B5FF
:1015F00005460C465D4885420ED05D4885420BD0BD
:10160000B5F1804F08D05B48854205D05A488542E5
:1016100002D05A48854200D100E000BF208850B96E
:101620002389A28861882846FFF7ABFFE188284616
:10163000FFF79EFF25E0208804280AD12389A2888D
:1016400061882846FFF753FFE1882846FFF742FFED
:1016500017E0208808280AD12389A28861882846B3
:10166000FFF7FBFEE1882846FFF7EEFE09E023893D
:10167000A28861882846FFF7A6FEE1882846FFF782
:1016800095FE70BD2DE9F04105460C460026012768
:10169000608808B9022600E00026A088012801D150
:1016A000022700E001272088A0B92389A288618849
:1016B0002846FFF766FFE1882846FFF759FF238990
:1016C0003A4631462846FFF712FFE1882846FFF7E1
:1016D00001FF13E02389A28861882846FFF707FFEE
:1016E000E1882846FFF7F6FE23893A463146284628
:1016F000FFF747FFE1882846FFF73AFFBDE8F08192
:101700000A884B881A438B881A43CB881A430B8963
:101710001A434B891A438B891A43A0F84420704717
:101720004FF6FF71818000210180C18041800172EC
:1017300070470021018041808180C1800181418109
:101740008181C18170470021018041800121818018
:101750000021C1800181704700210180418081808A
:10176000C18001814181818170470000002C0140CE
:10177000003401400004004000080040000C00401C
:1017800021B1028842F00102028004E002884FF693
:10179000FE731A400280704731B1B0F8442042F421
:1017A0000042A0F8442005E0B0F84420C2F30E0245
:1017B000A0F8442070471AB183890B43838102E06B
:1017C00083898B43838170478182704741EA02039A
:1017D000A0F8483070471AB183890B43838102E037
:1017E00083898B438381704701894FF6F8721140DA
:1017F000018170470A46002101894FF68F73194015
:1018000011430181704730B504460D4629462046F4
:10181000FFF7F0FF208940F00700208130BD2DE95F
:10182000F04104460D4616461F46602D06D13B4644
:10183000012231462046FFF75AFE05E03B460122D1
:1018400031462046FFF79DFE29462046FFF7D2FF8E
:10185000208940F007002081BDE8F08130B50C46BA
:1018600000210189C9B24FF6FF7505EA032515432A
:1018700025432943018130BD2DE9F04105460E463F
:1018800017469846002443463A4631462846FFF715
:10189000E5FF2C894FF6F870044044F007044FF63A
:1018A0008F70044044F070042C81BDE8F081F0B5E5
:1018B00004460D4616461F463B46324629462046FC
:1018C000FFF7CCFF208940F480402081F0BD0185E6
:1018D000828270470A46002101884FF68F731940B3
:1018E000114301807047F0B50C4615461E46002195
:1018F000002200230189028B038C4FF6F8773940D0
:1019000021434FF6FC473A4040F201173A434FF665
:10191000DD773B404FF6FF7707EA06172F433B433F
:10192000018102830384F0BD0A460021018B4FF63A
:101930008F7319401143018370470A460021018BC0
:1019400048F6FF7319404FF6FF7303EA0223194369
:10195000018370470A460021818B4FF68F7319402F
:101960001143818370470A460021818B48F6FF733B
:1019700019404FF6FF7303EA02231943818370472E
:1019800021B1028842F08002028004E002884FF612
:101990007F731A400280704721B1828842F00402AE
:1019A000828004E082884FF6FB731A408280704781
:1019B00021B1828842F00802828004E082884FF6DA
:1019C000F7731A408280704721B1828842F0010289
:1019D000828004E082884FF6FE731A40828070474E
:1019E0000A460021018B4FF6F7731940114301831A
:1019F00070470A460021018B4FF2FF7319404FF6E2
:101A0000FF7303EA02231943018370470A4600214A
:101A1000818B4FF6F77319401143818370470A4653
:101A20000021818B4FF2FF7319404FF6FF7303EAD9
:101A300002231943818370470A460021018B4FF628
:101A4000FB7319401143018370470A460021018B43
:101A50004FF6FF3319404FF6FF7303EA0223194391
:101A6000018370470A460021818B4FF6FB731940B2
:101A70001143818370470A460021818B4FF6FF3363
:101A800019404FF6FF7303EA02231943818370471D
:101A90000A460021018B4FF67F73194011430183E1
:101AA00070470A460021018BC1F30E014FF6FF7308
:101AB00003EA02231943018370470A460021818B00
:101AC0004FF67F7319401143818370470A46002106
:101AD000818BC1F30E014FF6FF7303EA0223194312
:101AE000818370470A460021018C4FF6FD7319402F
:101AF0001143018470470A460021018C4FF6F773A9
:101B000019401143018470470A460021018C4FF6A9
:101B1000DF7319404FF6FF7303EA02131943018480
:101B200070470A460021018C4FF67F7319404FF62B
:101B3000FF7303EA02131943018470470A46002128
:101B4000018C4FF6FF5319404FF6FF7303EA02234F
:101B50001943018470470A460021018C4FF2FF733C
:101B600019404FF6FF7303EA0223194301847047BB
:101B70000A460021018C4DF6FF7319404FF6FF73A2
:101B800003EA023319430184704730B5002301246E
:101B90008C40A3B2048C9C430484048C02FA01F5AB
:101BA000ADB22C43048430BD30B5002304248C40F6
:101BB000A3B2048C9C430484048C02FA01F5ADB2F8
:101BC0002C43048430BD70B5034600200024184621
:101BD000183001258D40ACB21D8CA5431D8409B180
:101BE000082909D100EB6100056825F07005056042
:101BF0000568154305600EE00D1FC5F34E0528442A
:101C0000056825F4E045056005684FF6FF7606EAAD
:101C100002263543056070BD21B1028842F0020200
:101C2000028004E002884FF6FD731A40028070477C
:101C300021B1028842F00402028004E002884FF6DB
:101C4000FB731A400280704721B1828842F0800203
:101C5000828004E082884FF67F731A40828070474A
:101C600002884FF6F7731A40028002880A43028006
:101C7000704782884FF68F731A40828082880A43A9
:101C80008280704702894FF6F8731A4002810289F8
:101C90000A430281704702894FF67F731A4002811E
:101CA00002890A43028170478184704781857047A9
:101CB000818670470187704781877047A0F8401080
:101CC000704702884FF6FF431A40028002880A4399
:101CD000028070470146888E70470146088F704722
:101CE0000146888F70470146B1F8400070470146B1
:101CF000888C70470146088D704702460020138A81
:101D00000B4201D0012000E000207047CA4302824C
:101D1000704730B50246002000230024158A05EAEA
:101D20000103958905EA010413B10CB1012000E01B
:101D3000002030BDCA4302827047000010B504463F
:101D4000FB48844209D101218803FFF79BF8002159
:101D50004FF48040FFF796F832E0F648844209D10C
:101D600001214804FFF79BF800214FF40030FFF7F2
:101D700096F825E0F048844209D101218804FFF754
:101D80008EF800214FF48020FFF789F818E0EB4827
:101D9000844209D10121C804FFF781F800214FF4E2
:101DA0000020FFF77CF80BE0E548844208D10121D0
:101DB0000805FFF774F800214FF48010FFF76FF863
:101DC00010BD2DE9F04786B005460E460024A24618
:101DD00000BFA1460027B08900B100BF2F462C8A62
:101DE0004CF6FF700440F08804432C82AC894EF618
:101DF000F3100440B08831890843718908430443D3
:101E0000AC81AC8A4FF6FF400440B0890443AC82F9
:101E100001A8FEF7B0FFC648874202D1DDF810A046
:101E200001E0DDF80CA0A88910F4004F08D00AEBFF
:101E3000CA0000EB0A1031684900B0FBF1F807E076
:101E40000AEBCA0000EB0A1031688900B0FBF1F818
:101E50006420B8FBF0F004012009642101FB108923
:101E6000A88910F4004F08D0322000EBC900B0FB65
:101E7000F1F000F00700044308E0322000EB091005
:101E80006421B0FBF1F000F00F0004432C8106B098
:101E9000BDE8F0874FF41651016000218180C180B8
:101EA00001810C21418100218181704710B50246DA
:101EB0000020108A4FF2FF0318400B884C88234300
:101EC0008C882343CC8823431843108210BD002103
:101ED000018041808180C180704721B1828942F4B4
:101EE0000052828104E082894DF6FF731A4082819C
:101EF0007047F0B503460024002600250020A1F518
:101F000010676A3F00D100BF1846C1F3421401F0C8
:101F10001F06012707FA06F5012C01D10C3004E059
:101F2000022C01D1103000E014301AB107682F43A1
:101F3000076002E00768AF430760F0BD1AB1838A0B
:101F40000B43838202E0838A8B4383827047028A39
:101F50004FF6F0731A400282028A0A4302827047E7
:101F600082894FF2FF731A40828182890A438281FB
:101F7000704721B1828942F00202828104E08289A5
:101F80004FF6FD731A4082817047028A4FF6DF7365
:101F90001A400282028A0A430282704721B1028AF1
:101FA00042F48042028204E0028A4BF6FF731A4038
:101FB00002827047C1F30802828070470146888818
:101FC000C0F308007047818941F0010181817047A9
:101FD000028BD2B20283028B42EA01220283704753
:101FE000028B02F47F420283028B0A430283704712
:101FF00021B1828A42F02002828204E0828A4FF676
:10200000DF731A408282704721B1828A42F0100247
:10201000828204E0828A4FF6EF731A408282704710
:1020200021B1828A42F00802828204E0828A4FF65D
:10203000F7731A408282704721B1828942F40042CC
:10204000828103E08289C2F30E028281704721B14E
:10205000828A42F40062828204E0828A4FF2FF7335
:102060001A4082827047828A4FF6FB731A4082823E
:10207000828A0A438282704721B1828A42F0020238
:10208000828204E0828A4FF6FD731A408282704792
:1020900002460020B1F5007F00D100BF13880B423B
:1020A00001D0012000E00020704701F40072B2F579
:1020B000007F00D100BFCA430280704770B502465E
:1020C0000024002300250020A1F510666A3E00D1FF
:1020D00000BFC1F3421501F01F03012606FA03F306
:1020E000012D02D19689334006E0022D02D1168AD5
:1020F000334001E0968A33400C12012606FA04F4BC
:102100001688344013B10CB1012000E0002070BDEE
:1021100010B500220023A1F510646A3C00D100BF75
:102120000A1201249440A3B2DC43048010BD0000D5
:10213000003801400044004000480040004C00408E
:102140000050004010B50446F748844209D10121EF
:102150004805FEF7A4FE00214FF40010FEF79FFE95
:1021600008E001218805FEF79AFE00214FF4800067
:10217000FEF795FE10BD2DE9F04385B004460D46EF
:102180000026B1460427DFF8A483A6884FF6C07066
:1021900006406846FEF7EFFDDDF80880E448B8FB2E
:1021A000F0F01FFA80F946EA0906A68020884FF66B
:1021B000FE71084020800026DE49286888420CD83D
:1021C00028684000B8FBF0F087B2042F00DA04273B
:1021D0003E4309F10100208427E0E888A0F53F4153
:1021E000FF3906D1286800EB4000B8FBF0F087B259
:1021F00009E0286800EBC00101EB0010B8FBF0F02B
:1022000087B247F480473805000D01D147F0010738
:1022100047F4004006434FF4967009FB00F04FF47A
:102220007A7190FBF1F0401C2084A683208840F056
:102230000100208026884FF6F5300640A88869897D
:10224000084306432680A88929890843208105B0D0
:10225000BDE8F08341F288310160002181804BF6B6
:10226000FF71C1800021018141814FF48041818152
:10227000704721B1028842F00102028004E0028826
:102280004FF6FE731A400280704721B1828842F4F3
:102290000062828004E082884FF2FF731A408280DD
:1022A000704721B1828842F48052828004E08288A3
:1022B0004EF6FF731A408280704721B1028842F4C3
:1022C0008072028004E002884FF6FF631A400280A9
:1022D000704721B1028842F40072028004E0028853
:1022E0004FF6FF531A400280704721B1028842F432
:1022F0008062028004E002884FF6FF331A400280B9
:1023000070470A46002181894FF60173194002F097
:10231000FE0319438181704721B1828942F0010295
:10232000828104E082894FF6FE731A4082817047F1
:1023300021B1028842F04002028004E002884FF698
:10234000BF731A40028070471AB183880B438380A1
:1023500002E083888B438380704701827047014687
:10236000088AC0B2704712B141F0010102E04FF695
:10237000FE7319400182704708B5024600200090A4
:1023800000920098084400900098008808BD21B190
:10239000028842F40042028003E00288C2F30E0287
:1023A00002807047B1F5006F04D1028842F40062E8
:1023B000028004E002884FF2FF731A4002807047E7
:1023C000B1F5005F04D1028842F40052028004E0BB
:1023D00002884DF6FF731A400280704721B10288CF
:1023E00042F48052028004E002884EF6FF731A40E5
:1023F00002807047B1F5006F04D1028842F4006298
:10240000028004E002884FF2FF731A400280704796
:1024100021B1028842F02002028004E002884FF6D7
:10242000DF731A40028070470146088B0012704724
:1024300021B1028842F01002028004E002884FF6C7
:10244000EF731A400280704721B9028842F080027F
:10245000028004E002884FF67F731A4002807047C2
:10246000B1F5804F05D0828B4BF6FF731A40828303
:1024700003E0828B42F480428283704770B502464B
:102480000024002500230020958A138B1B0445EAB5
:10249000030626F07F4404EA01068E4201D10120A2
:1024A00000E0002070BD10B501460020002300228E
:1024B0008B8A0A8B120443EA020424F07F4010BD89
:1024C0000CB50246002000230193009300920B0FED
:1024D000019321F07F41019B1BB1009B14330093BA
:1024E00003E0090C009B18330093009B1B680B4210
:1024F00001D0012000E000200CBD002221F07F422D
:10250000D3438382704730B502460020002394886D
:1025100001F0E06504EA154321F07F41948A0C4202
:102520000AD04BB1012008E00054004000127A00AC
:1025300040420F00A0860100002030BD002221F0A3
:102540007F42D3438382704710B5C8234FF4806223
:10255000F74940F6F63002F0F7F810BD10B586B036
:102560000446F4A000680390F3A000680290F3A072
:1025700000680190F2A00068009004F0030003A935
:10258000085C8DF8140003A8C4F3C101405C8DF809
:10259000150003A8C4F38111405C8DF8160004F007
:1025A000030002A9085C8DF8100002A8C4F3C10161
:1025B000405C8DF8110002A8C4F38111405C8DF8D5
:1025C000120005AA032140F2264001F0DEFF18B1F7
:1025D0004FF0FF3006B010BD04AA032140F22A409C
:1025E00001F0D3FF10B14FF0FF30F3E701980590F1
:1025F0000098049014F0040F0BD09DF8140040F0E4
:1026000001008DF814009DF8100040F001008DF8D5
:10261000100014F0200F0BD09DF8150040F00100C1
:102620008DF815009DF8110040F001008DF81100A3
:1026300014F4807F0BD09DF8160040F001008DF857
:1026400016009DF8120040F001008DF8120005AA56
:1026500003214FF4886001F098FF10B14FF0FF3074
:10266000B8E704AA032140F2314001F08EFF10B117
:102670004FF0FF30AEE7B34804810020AAE71FB552
:102680000446B048007A00F0030054F8200001909E
:10269000AC48007A10F0040F02D00198404201903B
:1026A000A848007AC0F3C10054F820000290A54861
:1026B000007A10F0200F02D0029840420290A14808
:1026C000007AC0F3811054F8200003909D480089DF
:1026D00010F4807F02D00398404203909A490198F9
:1026E00080FB0101800F40EA810001909649029829
:1026F00080FB0110820042EA917002909249039897
:1027000080FB0110820042EA917003900198000E54
:102710008DF800000198000C8DF801000198000A66
:102720008DF802000198C0B28DF803006A460421BA
:102730004FF4747001F029FF18B14FF0FF3004B06E
:1027400010BD0298000E8DF800000298000C8DF864
:1027500001000298000A8DF802000298C0B28DF8BC
:1027600003006A4604214FF4757001F00EFF10B1AA
:102770004FF0FF30E3E70398000E8DF80000039858
:10278000000C8DF801000398000A8DF802000398F0
:10279000C0B28DF803006A4604214FF4767001F050
:1027A000F4FECCE770B588B0064601A801F0FBFC4A
:1027B000BDF804000021C90341EA5045C403614843
:1027C000007A00F0030056F8200005905D48007A7A
:1027D00010F0040F02D00598404205905948007A45
:1027E000C0F3C10056F8200006905648007A10F059
:1027F000200F02D00698404206905248007AC0F35B
:10280000811056F8200007904E48008910F4807F10
:1028100002D00798404207900598C117A0FB0423F7
:1028200001FB043100FB0510810041EA9270059024
:102830000698C117A0FB042301FB043100FB05101F
:10284000810041EA927006900798C117A0FB04230B
:1028500001FB043100FB0510810041EA92700790F2
:102860000598000E8DF808000598000C8DF80900F9
:102870000598000A8DF80A000598C0B28DF80B0083
:102880000698000E8DF80C000698000C8DF80D00CF
:102890000698000A8DF80E000698C0B28DF80F0059
:1028A0000798000E8DF810000798000C8DF81100A5
:1028B0000798000A8DF812000798C0B28DF813002F
:1028C00002AA0C214FF4257001F05FFE08B070BD24
:1028D00030B585B004461DA207CA02AB07C3C82C99
:1028E00003DD4FF0FF3005B030BDC82090FBF4F0A1
:1028F000401E85B2280A8DF80000E8B28DF801006C
:102900006A46022140F2162001F03FFE10B14FF05E
:10291000FF30E8E702AA0C2140F6C12001F035FEA5
:1029200010B14FF0FF30DEE7064884810020DAE77F
:10293000729600084CCD6C000CC92C0036567600FF
:10294000264666004406002009E3CA02FEF2ABC434
:10295000AAF1DFDFBBAFDFDF0146FC4880890880DA
:10296000002070472DE9FC4706460F4616F0070F7A
:1029700002D0B7F5C86F03DD4FF0FF30BDE8FC872C
:10298000384606F0E3FB8146F14906F095FA8046A9
:10299000684601F007F99DF80000022806D00428D7
:1029A00016D0082826D0102848D135E04FF08D41A8
:1029B000404606F013FC814606F090FB84B2E549E0
:1029C000404606F00BFC814606F088FB85B238E0F5
:1029D0004FF08C41404606F001FC814606F07EFB3C
:1029E00084B2DD49404606F0F9FB814606F076FBED
:1029F00085B226E04FF08B41404606F0EFFB814662
:102A000006F06CFB84B2D549404606F0E7FB8146F0
:102A100006F064FB85B214E04FF08A41404606F0B0
:102A2000DDFB814606F05AFB84B2CD49404606F0F4
:102A3000D5FB814606F052FB85B202E04FF0FF3035
:102A40009CE700BF20128DF80400E0B28DF805006D
:102A500028128DF80600E8B28DF8070016F0010F75
:102A600014D001AA02214FF4EA7001F08EFD10B1DA
:102A70004FF0FF3082E70DF1060202214FF4927011
:102A800001F083FD10B14FF0FF3077E716F0020F31
:102A900014D001AA02214FF4EC7001F076FD10B1C0
:102AA0004FF0FF306AE70DF1060202214FF49470F7
:102AB00001F06BFD10B14FF0FF305FE716F0040F2F
:102AC00014D001AA02214FF4EE7001F05EFD10B1A6
:102AD0004FF0FF3052E70DF1060202214FF49670DD
:102AE00001F053FD10B14FF0FF3047E7002045E7FC
:102AF00038B504460020009014F0010F04D09DF872
:102B0000000040F03000009014F0020F04D09DF857
:102B1000000040F00C00009014F0040F04D09DF869
:102B2000000040F0030000906A4601214FF4A470B9
:102B300001F02BFD38BD38B50446012C01DA012423
:102B400002E0042C00DD0424601EC0B200906A463E
:102B5000012140F24F1001F018FD38BD38B5044690
:102B6000052094FBF0F085B228128DF80000E8B241
:102B70008DF801006A4602214FF4EF7001F005FD67
:102B800038BD38B50446052094FBF0F085B2281214
:102B90008DF80000E8B28DF801006A4602214FF47A
:102BA000ED7001F0F2FC38BDF8B505460E464FF465
:102BB0007A7095FBF0F000FB06F4200E8DF8000013
:102BC000200C8DF80100200A8DF80200E0B28DF88B
:102BD00003006A4604214FF4AE7001F0D6FCF8BD44
:102BE00038B50446052094FBF0F084B220128DF82D
:102BF0000000E0B28DF801006A4602214FF4AD708A
:102C000001F0C3FC38BD38B50446052094FBF0F054
:102C100084B220128DF80000E0B28DF801006A46FF
:102C200002214FF4AC7001F0B0FC38BD38B5044659
:102C300014B94FF0FF3038BD6A4604214FF4587084
:102C400001F0E0FC10B14FF0FF30F4E79DF8000018
:102C500000069DF8011040EA01409DF8021040EA8C
:102C600001209DF80310084320600020E3E738B5F9
:102C70000446200E8DF80000200C8DF80100200A7B
:102C80008DF80200E0B28DF803006A4604214FF48B
:102C9000587001F07AFC38BD38B5044614B94FF0CD
:102CA000FF3038BD6A4604214FF4717001F0AAFC70
:102CB00010B14FF0FF30F4E79DF8000000069DF8DA
:102CC000011040EA01409DF8021040EA01209DF801
:102CD0000310084300EB8000800020600020E0E744
:102CE00038B504461420B4FBF0F4200E8DF8000033
:102CF000200C8DF80100200A8DF80200E0B28DF85A
:102D000003006A4604214FF4717001F03EFC38BDA7
:102D100038B5044664B120208DF8000028208DF8D5
:102D2000010030208DF8020038208DF8030004E007
:102D3000A3220421684604F0A0FA6A46042140F662
:102D40009E2001F022FC00F0EBFB38BD4406002081
:102D500000004843000040460000C04500004045D8
:102D60000000C04438B5044664B1C0208DF80000AE
:102D7000C2208DF80100C4208DF80200C6208DF815
:102D8000030004E08B220421684604F076FA6A46C8
:102D9000042140F6982001F0F8FB00F0C1FB38BD9B
:102DA0003EB504466CB1FCA1D1E900208968CDE9AB
:102DB000002002916A4609214FF4976001F0E5FB7B
:102DC0003EBDF8A2D2E900109268CDE9010200915F
:102DD0006A4609214FF4976001F0D7FBF0E73EB552
:102DE000044602208DF80000CA208DF80100E3207F
:102DF0008DF8020009208DF803006A46042168203E
:102E000001F0C3FBA3208DF8000014F0400F09D09F
:102E1000C0208DF80100C8208DF80200C2208DF876
:102E2000030006E0A3208DF801008DF802008DF864
:102E3000030014F4C07F09D0C4208DF80400CC2016
:102E40008DF80500C6208DF8060006E0A3208DF859
:102E500004008DF805008DF80600A3208DF807000A
:102E60008DF808008DF809006A460A2140F6A7206F
:102E700001F08BFB14F0030F03D020208DF800002D
:102E800002E0D8208DF800006A46012140F6B62005
:102E900001F07BFB14F0200F03D00120FFF780FF2F
:102EA00002E00020FFF77CFF14F4C07F21D014F46F
:102EB000807F0CD0B2208DF800008B208DF80100AF
:102EC000B6208DF802009B208DF803000BE0B020A7
:102ED0008DF8000080208DF80100B4208DF80200EC
:102EE00090208DF803006A46042140F6A22001F0EC
:102EF0004CFB14F0010F24D0F8208DF800006A4636
:102F000001214FF40B6001F040FBFA210720FFF78D
:102F100029FD0720FFF7ECFD0120FFF70CFE6420E0
:102F2000FFF71CFE4FF4FA70FFF72BFEC821A048F4
:102F3000FFF73AFE2820FFF753FE0A20FFF763FE53
:102F400008E0D8208DF800006A4601214FF40B609C
:102F500001F01BFB14F0020F03D0D9208DF8000004
:102F600002E0D8208DF800006A46012140F23D7051
:102F700001F00BFB14F0040F03D00120FFF7F2FE69
:102F800002E00020FFF7EEFE14F0100F03D0012046
:102F9000FFF7BEFE02E00020FFF7BAFE44F0080093
:102FA0008449488100F0BCFA00208249887314F0FB
:102FB000400F03D00846807B801D887314F4C07FC7
:102FC00004D07C48807B801D7A49887314F0140FEC
:102FD00004D07848807B10307649887314F0030F52
:102FE00004D07448807B001D7249887300203EBD68
:102FF0000146704840890880002070472DE9F04163
:103000000446E07800F0C006E07800F03F05607804
:1030100010F0010F13D0EF102846E91705EB51719E
:10302000C910A5EBC101491C01F0FF086148006807
:1030300020B16048414602683846904700BF60783A
:1030400010F0080F06D05B48406818B1B011594A1B
:10305000516888470020BDE8F08110B586B004466D
:1030600055A207CA03AB07C356A207CA8DE80700DB
:10307000012C09D0022C0ED103AA0B2140F682208C
:1030800001F083FA06B010BD6A460B2140F682209B
:1030900001F07BFAF6E74FF0FF30F3E72DE9F04F50
:1030A0008DB00746884615469B46DDE9166A002422
:1030B000002030803F49887B524605A901F0DFFAA5
:1030C00018B1601E0DB0BDE8F08F3A48807A10F05C
:1030D000140F7DD09DF8140000069DF8151040EAED
:1030E00001409DF8161040EA01209DF81710084392
:1030F00028609DF8180000069DF8191040EA01406C
:103100009DF81A1040EA01209DF81B1008436860E2
:103110009DF81C0000069DF81D1040EA01409DF836
:103120001E1040EA01209DF81F100843A8609DF87A
:10313000200000069DF8211040EA01409DF8221071
:1031400040EA01209DF823100843E86004F11000D4
:10315000C4B2286800140190686800140290A8683E
:1031600000140390E8680014049001984043029909
:1031700001FB0100039901FB0100049901FB010916
:10318000B9F1706F02DBB9F1885F22DD00F0C8F998
:1031900000203080401E95E7B8AAB38DB4980D3555
:1031A0005D000000B8AAAAAAB088C3C5C700000085
:1031B00009E3CA0244060020D8B1B9F38BA391B643
:1031C00009B4D900DAB1B9F38BA391B6DAB4DA0055
:1031D00005E0B6F9000040F48070308000BF33484D
:1031E000807A10F0400F24D005A9601C085C095DAE
:1031F00040EA012000B2A8F8000005A9E01C095C23
:1032000005AAA01C105C41EA002000B2A8F8020048
:1032100005A9601D095C201D105C41EA002000B278
:10322000A8F80400A01DC4B2B6F9000040F00800E0
:1032300030801E48408910F4C07F21D005A9601C51
:10324000085C095D40EA012000B2388005A9E01C55
:10325000095C05AAA01C105C41EA002000B278803D
:1032600005A9601D095C201D105C41EA002000B228
:10327000B880A01DC4B2B6F9000040F070003080E4
:103280000A48807A10F0030F03D005A90819FFF748
:10329000B5FE002016E70146044801600020704793
:1032A00001460248416000207047000044060020AB
:1032B00038B50446FA48807A10B94FF0FF3038BD6F
:1032C000FA2C09D0B4F5FA7F09D0B4F57A7F09D089
:1032D000B4F5FA6F0CD108E0002000900BE0082054
:1032E000009008E01020009005E01820009002E017
:1032F0004FF0FF30E3E700BFE948007A9DF8001087
:10330000B0EBE10F01D10020D9E7E54A12689179CD
:10331000E34A526810786B46012201F0ACFF10B10D
:103320004FF0FF30CBE79DF80000C010DC49087279
:103330000020C4E738B50446D948807A10B94FF068
:10334000FF3038BD022C06D0042C07D0082C08D042
:10335000102C0CD108E0002000900BE00820009019
:1033600008E01020009005E01820009002E04FF0E7
:10337000FF30E6E700BFCA48407A9DF80010B0EB86
:10338000E10F01D10020DCE7C54A1268D179C44AB7
:10339000526810786B46012201F06DFF10B14FF0BA
:1033A000FF30CEE79DF80000C110BD4841720020FB
:1033B000C7E738B50446BA48807A10B94FF0FF30F5
:1033C00038BDBC2C02DB0120009015E0622C02DB32
:1033D0000220009010E02A2C02DB032000900BE07A
:1033E000142C02DB0420009006E00A2C02DB0520EE
:1033F000009001E006200090A948C07A9DF80010D6
:10340000884201D10020DBE7A54A12689178A44ADE
:10341000526810786B46012201F02DFF10B14FF079
:10342000FF30CDE79DF800109D48C1720020C7E72E
:1034300038B504469A4890F82300A04201D10020F4
:1034400038BD14B13020009001E000200090944875
:10345000807C20B19DF8000040F002000090904870
:1034600090F8220020B19DF8000040F0800000900C
:103470008B4A1268117D8A4A526810786B46012285
:1034800001F0F9FE10B14FF0FF30D9E7844880F821
:1034900023400020D4E738B50446814890F8240042
:1034A000C0B114B10220009001E0002000907C4ADD
:1034B0001268D17B7A4A526810786B46012201F07B
:1034C000DAFE10B14FF0FF3038BD9DF8001074489F
:1034D000417423E07248807A10B94FF0FF30F3E76F
:1034E00024B16F48407C08B10020EDE714B1012001
:1034F000009001E000200090694A1268D17B684A80
:10350000526810786B46012201F0B5FE10B14FF001
:10351000FF30D9E79DF80010614841740020D3E7DF
:1035200008B55F48807A10B94FF0FF3008BD002021
:1035300000905B4A1268D17B594A526810786B46FA
:10354000012201F098FE10B14FF0FF30EEE7544A2F
:1035500012685179524A526810786B46012201F084
:103560008AFE10B14FF0FF30E0E74D4A1268117942
:103570004B4A526810786B46012201F07CFE10B174
:103580004FF0FF30D2E7464890F82400002853D08F
:103590000C200090424A12681179414A5268107812
:1035A0006B46012201F067FE10B14FF0FF30BDE71E
:1035B000322001F054FEC02000903948807A10F08B
:1035C000010F04D09DF8000040F020000090344A24
:1035D00012681179324A526810786B46012201F064
:1035E0004AFE10B14FF0FF30A0E72D48407C10B1EB
:1035F0000220009001E000200090294A1268D17B4F
:10360000274A526810786B46012201F034FE10B14F
:103610004FF0FF308AE700200090214A126851796C
:103620001F4A526810786B46012201F024FE0028E0
:1036300057D04FF0FF3079E704200090184A126805
:103640001179174A526810786B46012201F013FE77
:1036500010B14FF0FF3069E71148807C20B9104865
:10366000807A10F0010F02D14020009001E060202C
:1036700000900B4A12681179094A526810786B461B
:10368000012201F0F8FD10B14FF0FF304EE732207B
:1036900001F0E5FD0248407C20B10120009003E0EC
:1036A0004000002000200090FE4A1268D17BFD4AB5
:1036B000526810786B46012201F0DDFD10B14FF029
:1036C000FF3033E7F74A12685179F64A52681078AA
:1036D000F44B1033012201F0CEFD10B14FF0FF305A
:1036E00024E7002022E770B50446002624F00104F8
:1036F000EC4890F8240008B1002070BDE948807AB9
:1037000010B94FF0FF30F8E7E648057C807A20409A
:10371000E44908740846007CA04202D04FF0FF360E
:1037200000E0002614B9DF48007D18B10120FFF742
:10373000B2FE02E00020FFF7AEFE3CB1FFF7F0FE64
:1037400020B1D84805744FF0FF30D6E73046D4E7B3
:1037500038B50446282C02DD4FF0FF3038BDDCB907
:103760000020FFF765FE00208DF8000007208DF88F
:103770000100CC4A1268917CCA4A526810786B46A4
:10378000022201F078FD10B14FF0FF30E6E7002192
:10379000C44801750020E1E70120FFF749FE202021
:1037A0008DF80000012C06D100208DF801000520C5
:1037B000FFF7FFFD17E0052C06DC01208DF8010066
:1037C0000520FFF7F6FD0EE0142C06DC02208DF834
:1037D00001000A20FFF7EDFD05E003208DF8010050
:1037E0001420FFF7E6FD9DF80100072101EB801092
:1037F000C0B28DF80100AB4A1268917CA94A5268A8
:1038000010786B46022201F036FD10B14FF0FF3008
:10381000A4E70821A34881720021017301210175E9
:103820000020FFF760FF002098E738B504469D4868
:10383000807A10B94FF0FF3038BD9A4890F82400D4
:1038400010B14FF0FF30F7E79648007D50B134B12A
:10385000282C04DCE0B2FFF77BFF0020ECE700201F
:10386000FFF776FF042C01DA042404E0B4F57A7F34
:1038700001DD4FF47A744FF47A7090FBF4F0401E3F
:10388000C0B20090874A12685178864A5268107810
:103890006B46012201F0EFFC10B14FF0FF30CBE797
:1038A0009DF80000401C4FF47A7191FBF0F081B25A
:1038B0007C48C1810146C9894810FFF77AFD002084
:1038C000BAE738B504467748807CA04201D1002091
:1038D00038BD002C46D0734A12681179714A52687B
:1038E00010786B46012201F0E6FC10B14FF0FF307A
:1038F000EEE79DF8000020F020000090694A126871
:103900001179684A526810786B46012201F0B3FCC5
:1039100010B14FF0FF30DBE7032001F0A0FC0220E4
:103920000090604890F8220020B19DF8000040F01F
:10393000800000905B4890F8230020B19DF80000C3
:1039400040F030000090574A1268117D554A526885
:1039500010786B46012201F08EFC002851D04FF008
:10396000FF30B5E74F4A126811794E4A5268107815
:103970006B46012201F09FFC10B14FF0FF30A7E72A
:103980004848807A10F0010F05D09DF8000040F003
:103990002000009004E09DF8000020F0200000903E
:1039A000404A126811793F4A526810786B460122EA
:1039B00001F061FC10B14FF0FF3089E7032001F006
:1039C0004EFC384890F8220010B18020009001E0B1
:1039D00000200090334890F8230020B19DF80000AB
:1039E00040F0300000902F4A1268117D2D4A526835
:1039F00010786B46012201F03EFC10B14FF0FF3011
:103A000066E728488474002062E738B5044614F05D
:103A1000700F02D00120009005E014B1002000904A
:103A200001E0402000901F4A1268917C1D4A5268B4
:103A300010786B46012201F01EFC20B100211948CC
:103A40008172481E38BD9DF8000020F040011548E5
:103A500001730020009014F0400F04D19DF8000085
:103A600040F00400009014F0200F04D19DF80000F5
:103A700040F00200009014F0100F04D19DF80000F7
:103A800040F00100009014F0080F04D19DF80000F0
:103A900040F038000090034A1268D17C014A526815
:103AA000107801E0400000206B46012201F0E3FBAA
:103AB00020B10021FD488172481EC3E724B1082CC3
:103AC00002D00020FFF7B4FCF84884720021017591
:103AD000322001F0C4FB0020B4E738B50446F348B7
:103AE00090F82400A04201D1002038BD24B3EF4853
:103AF00090F8250010B94FF0FF30F6E70020FFF7EF
:103B0000CAFC0020FFF7DDFEE849C88CFFF78DFEF8
:103B100000200090E549496808786B46012223217E
:103B200001F0A9FB0121E14880F824100120FFF7F2
:103B3000B2FCFFF7F5FC13E00020FFF7ACFCDB481C
:103B4000007C0090D949496808786B4601222321FE
:103B500001F091FB0021D54880F82410FFF7E0FC2C
:103B60000020C2E70146D148007A30B1012807D0D1
:103B7000022809D003280FD10AE0FA2008800EE0BD
:103B80004FF4FA7008800AE04FF47A70088006E07B
:103B90004FF4FA60088002E00020088000BF00BFF8
:103BA000002070470146C148407A30B1012807D053
:103BB000022808D003280CD108E0022008700BE08E
:103BC0000420087008E00820087005E01020087044
:103BD00002E04FF0FF30704700BFB448C07C18B11E
:103BE00008784006000E08700020F4E70146AF4850
:103BF000C07A082817D2DFE800F01704070A0D1072
:103C00001318BC20088013E06220088010E02A20EE
:103C100008800DE0142008800AE00A20088007E0F0
:103C20000520088004E000BF00BF0020088000BF1E
:103C300000BF0020704701469C4890F8240010B156
:103C40004FF0FF3070479948C08908800020F9E79D
:103C500001469648007C0870002070472DE9F04F1F
:103C600087B005460C46914601208DF810000020D3
:103C70008DF811008D4A1268917C8C4A5268107838
:103C800004AB022201F0F7FA20B14FF0FF3007B089
:103C9000BDE8F08FC82001F0E2FA00208DF8100096
:103CA000824A1268D17B814A5268107804AB0122A3
:103CB00001F0E1FA10B14FF0FF30E8E77B4A1268FB
:103CC00051797A4A5268107804AB012201F0D3FA94
:103CD00010B14FF0FF30DAE7744A1268917C734AF2
:103CE0005268107804AB012201F0C5FA10B14FF010
:103CF000FF30CCE76D4A1268D17D6C4A526810786B
:103D000004AB012201F0B7FA10B14FF0FF30BEE76B
:103D1000664A12681179654A5268107804AB01222C
:103D200001F0A9FA10B14FF0FF30B0E70C208DF888
:103D300010005E4A126811795C4A5268107804AB30
:103D4000012201F098FA10B14FF0FF309FE70F20E9
:103D500001F085FA5548806A407A8DF81000534A80
:103D600012689178514A5268107804AB012201F030
:103D700082FA10B14FF0FF3089E74C48806A007A30
:103D80008DF81000494A12685178484A52681078F4
:103D900004AB012201F06FFA10B14FF0FF3076E76B
:103DA000B9F1000F07D04148806A807A40F0E00006
:103DB0008DF8100004E03D48806A807A8DF810008C
:103DC0003A4A12689179394A5268107804AB012254
:103DD00001F051FA10B14FF0FF3058E7B9F1000F80
:103DE00007D03248806AC07A40F0E0008DF81000B9
:103DF00003E02F48C07A8DF810002C4A1268D17960
:103E00002A4A5268107804AB012201F034FA10B14A
:103E10004FF0FF303BE7B9F1000F02D0C82001F0AE
:103E20001EFA40208DF81000204A126811791F4AAE
:103E30005268107804AB012201F01DFA10B14FF066
:103E4000FF3024E778208DF81000184A1268517965
:103E5000164A5268107804AB012201F00CFA10B136
:103E60004FF0FF3013E71249888901F0F8F900207C
:103E70008DF810000D4A126851790C4A526810787A
:103E800004AB012201F0F7F910B14FF0FF30FEE66C
:103E9000064A1268917A054A5268107804AB0222E9
:103EA00001F009FA30B14FF0FF30F0E64000002099
:103EB00090A200089DF811009DF8101040EA012B17
:103EC0000C209BFBF0F0C6B20020A8606860286060
:103ED000A06060602060824665E0FE4A1268D17A88
:103EE000FC4A5268107804AB0C2201F0E4F910B1DE
:103EF0004FF0FF30CBE69DF811009DF8101040EA1E
:103F0000012000B2ADF808009DF813009DF81210D2
:103F100040EA012000B2ADF80A009DF815009DF8B6
:103F2000141040EA012000B2ADF80C00BDF90810F1
:103F3000206808442060BDF90A1060680844606089
:103F4000BDF90C10A0680844A0609DF817009DF80A
:103F5000161040EA012000B2ADF800009DF81900EB
:103F60009DF8181040EA012000B2ADF802009DF85B
:103F70001B009DF81A1040EA012000B2ADF80400C1
:103F8000BDF90010286808442860BDF9021068686F
:103F900008446860BDF90410A8680844A8600AF1E4
:103FA000010000F0FF0AB24597DBCB48D0F800C013
:103FB0002868C117090441EA10410704624600233A
:103FC000384603F00AF932460023CDE9020103F036
:103FD00004F92860C048D0F800C06868C117090417
:103FE00041EA1041070462460023384603F0F5F821
:103FF00032460023CDE9020103F0EFF86860B648CD
:10400000D0F800C0A868C117090441EA10410704AC
:1040100062460023384603F0E0F832460023CDE93B
:10402000020103F0DAF8A860AB48D0F804C02168B8
:10403000C817000440EA11480F04624600233846BE
:10404000414603F0CAF832460023CDE9020103F0ED
:10405000C4F82060A048D0F804C06068C117090403
:1040600041EA1041070462460023384603F0B5F8E0
:1040700032460023CDE9020103F0AFF860609648B4
:10408000D0F804C0A068C117090441EA1041070430
:1040900062460023384603F0A0F832460023CDE9FB
:1040A000020103F09AF8A060A068002804DDA0686F
:1040B000A0F58030A06003E0A06800F58030A0602B
:1040C0000020E4E57CB5054682494968087801ABE3
:1040D00004220D2101F0EFF808B107207CBD9DF806
:1040E0000700C0F301109DF8041001F0E00140EA60
:1040F000E1008DF800009DF80700C0F381009DF8F5
:10410000051001F0E00140EAE1008DF801009DF8A2
:10411000070000F003009DF8061001F0E00140EAFE
:10412000E1008DF8020000241CE01DF8040018B91D
:10413000002045F8240013E0684845F8240006E014
:1041400055F82400664905F049F845F824001DF8A3
:104150000400401E10F0FF000DF80400F0D100BF75
:10416000601CC4B2032CE0DB0020B7E701465948CD
:10417000007A30B1012807D0022808D003280CD1DA
:1041800008E0584808600BE05748086008E05748C6
:10419000086005E05648086002E04FF0FF307047C5
:1041A00000BF0020FBE701464A48407A30B10128B1
:1041B00008D002280AD0032810D10BE04FF4804029
:1041C00008800EE041F69C7008800AE04FF48050B1
:1041D000088006E04FF40060088002E04FF0FF30F6
:1041E000704700BF3B48C07C10B108884010088071
:1041F0000020F5E72DE9F04F85B0064689460025F9
:1042000002A8FFF75FFF00244AE056F8240059F89F
:104210002410471A01D4394600E07942084604F0D8
:104220007DFF80464FF08F4104F046FE824602A992
:1042300051F82400002104F001FF21D002A850F819
:104240002410504604F038FE07464FF07E5105F02A
:10425000FDF883462049486A04F08EFD07468846EB
:10426000584604F089FD21F000413A464346CDE925
:10427000000104F06FFB12D20120A04005430EE0C4
:104280001548C169504604F075FF05D31248016A0C
:10429000504605F06FF802D20120A0400543641C8F
:1042A000032CB2DB284605B0BDE8F08F2DE9F04FB6
:1042B00085B006460F46002506494968087804ABD4
:1042C00003220D2100F0F7FFA0B1072005B0BDE8E3
:1042D000F08F00004000002090A200087B14AE3E4A
:1042E0001D5A843F000003430000834233330342DE
:1042F000333383419DF8100000F01F008DF810004B
:104300009DF8110000F01F008DF811009DF81200BB
:1043100000F01F008DF8120000245FE056F8240022
:1043200057F82410B0EB010B01D4594601E0CBF152
:104330000001084604F0F2FE4FF08F41039004F0B4
:10434000BBFD814604A8005DB8B3F849086804F0D5
:10435000FDFE83465946F64804F0AEFD804604E073
:10436000F449404604F03AFF804604A8005D401E30
:1043700010F0FF0004A90855F2D14146484604F068
:104380009BFD83464FF07E5105F060F88246E74979
:10439000886904F0F1FCCDE90201504604F0ECFC20
:1043A00021F00041CDE90001DDE9022304F0D2FA59
:1043B00013D20120A04005430FE0FFE7DB4801696D
:1043C000484604F0D7FE05D3D8484169484604F072
:1043D000D1FF02D20120A0400543641C032C9DDBC9
:1043E000284673E72DE9F04F8DB083460F46022033
:1043F0000C90D14890F8240020B10020FFF76DFB0D
:10440000012600E0002603A8FFF7ACFB05A8FFF794
:10441000C9FB01A8FFF7EAFB02A8FFF70CFCC6489E
:1044200090F80AA004A8FFF713FC002407E000227C
:1044300039465846FFF712FC00B902E0641C022C12
:10444000F5DB00BF022C01D1002528E0002407E0A5
:10445000012206A909A8FFF701FC00B902E0641CCB
:10446000022CF5DB00BF022C01D1002517E006A9C4
:104470003846FFF7BFFE00F0FF0809A95846FFF7CE
:1044800015FF00F0FF090025B9F1000F01D145F03B
:104490000105B8F1000F01D145F0020500BFFF2072
:1044A000A5490872FF21A4484172C1724FF6FF71FD
:1044B000C181FF218172017401210173BDF80C00DB
:1044C000FEF7F6FE9DF81400FEF734FFBDF8040079
:1044D000FEF76FFFBDF80800FFF7A7F95046FFF79A
:1044E00094FA9DF81000FFF7FEF816B10120FFF7CF
:1044F000F4FA28460DB0BDE8F08F70B588B002A977
:1045000005A8FFF76FFF0446032C3CD101A8FFF775
:104510002DFE059804F002FE0646019904F05EFEA9
:10452000054604F0BFFD0590069804F0F7FD064629
:10453000019904F053FE054604F0B4FD0690079877
:1045400004F0ECFD0646019904F048FE054604F02F
:10455000A9FD079005A8FEF792F86846FFF723FE2D
:10456000BDF80010029848430290BDF8001003986F
:1045700048430390BDF8001004984843049002A8F3
:10458000FEF710F900BF08B070BDF8B504460D463F
:10459000164616B94FF0FF30F8BD6748807A10B95B
:1045A0004FF0FF30F8E720128DF80000E0B28DF8F0
:1045B00001009DF8010028445F4949684989884203
:1045C00002DD4FF0FF30E7E75B4A1268117E5A4A7E
:1045D000526810786B46022200F04DFE10B14FF089
:1045E000FF30D9E7EAB2544B1B68597D524B5B68E8
:1045F0001878334600F03FFE10B14FF0FF30CBE7A4
:104600000020C9E7F8B504460D46164616B94FF026
:10461000FF30F8BD4848807A10B94FF0FF30F8E716
:1046200020128DF80000E0B28DF801009DF8010025
:104630002844414949684989884202DD4FF0FF30EA
:10464000E7E73D4A1268117E3B4A526810786B4694
:10465000022200F010FE10B14FF0FF30D9E7EAB2AD
:10466000354B1B68597D344B5B681878334600F036
:1046700022FE10B14FF0FF30CBE70020C9E7F8B5BC
:1046800004460F4616462C4890F8240010B94FF007
:10469000FF30F8BD2848807A10B94FF0FF30F8E7B6
:1046A000254A1268917A244A526810786B46022291
:1046B00000F001FE10B14FF0FF30EAE79DF8010075
:1046C0009DF8001040EA0125A54203DA0020307071
:1046D000401EDEE7184840684088B5EB600F17DDE4
:1046E000154A1268517C144A526810786B460122B0
:1046F00000F0E1FD10B14FF0FF30CAE79DF8000077
:1047000010F0100F04D0FEF70BFF6FF00100C0E7B0
:10471000E2B2094B1B68D97A074B5B6818783B46B5
:1047200000F0C9FD50B14FF0FF30B2E790A2000891
:1047300000B04C4554E3853F4000002095FBF4F069
:10474000401E30700020A4E72DE9F04385B00546F7
:104750000E4690469946F24890F8250020B14FF059
:10476000FF3005B0BDE8F08316B94FF0FF30F8E731
:10477000002423E0281B102801DD102000E0281B66
:1047800087B2321939462046FFF7FFFE10B14FF0CD
:10479000FF30E6E701AA39462046FFF733FF10B1A4
:1047A0004FF0FF30DDE730193A4601A902F039FD3C
:1047B00010B16FF00100D4E7E01984B2AC42D9DB4C
:1047C0004FEA28208DF8000008F0FF008DF8010066
:1047D000D34A1268917ED24A526810786B46022200
:1047E00000F049FD10B14FF0FF30BAE70121CC488D
:1047F00080F82510A0F826900020B2E7014691F934
:104800000020002A01DD00201EE091F90020002A8E
:1048100001DA042018E091F90120002A01DD0120CD
:1048200012E091F90120002A01DA05200CE091F94B
:104830000220002A01DD022006E091F90220002A70
:1048400001DA062000E00720704770B505462846CB
:10485000FFF7D4FF0446E81CFFF7D0FF44EAC0008E
:1048600084B2A81DFFF7CAFF44EA801084B2204634
:1048700070BD1CB5AA4A12681178A94A526810780E
:104880006B46012200F017FD08B101201CBD9DF808
:104890000000682809D02421A2A0FBF7CEFE9DF8D5
:1048A0000000FBF7E0FE0220F0E780208DF800001A
:1048B0009B4A1268917C9A4A526810786B46012292
:1048C00000F0D9FC08B10320E0E7642000F0C7FC49
:1048D00000208DF80000924A1268917C904A52683C
:1048E00010786B46012200F0C6FC08B10420CDE729
:1048F0008B4A1268917D8A4A526810786B4606226C
:1049000000F0D9FC08B10520C0E79DF80500C007FC
:10491000400F9DF8031001F0010140EA41009DF8AD
:10492000011001F0010140EA01048CB1012C03D116
:1049300001217B48C17430E0022C03D1002178486A
:10494000C1742AE0172181A0FBF777FE06209DE7BE
:10495000734A1268D178724A526810786B46012205
:1049600000F0A9FC08B1072090E79DF8000000F0D6
:104970000F042CB910217BA0FBF75FFE052085E713
:10498000042C07D115217CA0FBF757FE01216448B8
:10499000C17402E000216248C174FF216048817245
:1049A000FF205F490872FF215D484172C1724FF6D6
:1049B000FF71C181FF21017481740121017380F8AD
:1049C0002210002180F82310417501751630016016
:1049D00041608160163880F8241080F82510C18469
:1049E0004FF4FA60FEF764FC08B110204EE7022095
:1049F000FEF7A0FC08B1112048E72A20FEF7D9FCF9
:104A000008B1122042E73220FEF70FFF08B1132051
:104A10003CE70020FEF767FE08B1142036E70020CF
:104A2000FEF74FFF08B1152030E70020FEF7EDFF3D
:104A300000202BE710B5FFF71CFF132154A0FBF754
:104A4000FCFD7820FEF7E1FF20B9132155A0FBF70C
:104A5000F4FD03E0132158A0FBF7EFFD7820FEF7EB
:104A600042FE20B90E2159A0FBF7E7FD03E00E211D
:104A70005AA0FBF7E2FD6420FEF7D7FE20B9132110
:104A80005AA0FBF7DAFD03E013215DA0FBF7D5FD8B
:104A9000FDF75AFD20B919215EA0FBF7CEFD03E01A
:104AA000192163A0FBF7C9FD6848FFF7CEFE044655
:104AB000FDF754FD20B91D2165A0FBF7BEFD03E005
:104AC0001D216BA0FBF7B9FD40F27310FEF787F9CB
:104AD00020B90D216EA0FBF7B0FD03E00D2170A001
:104AE000FBF7ABFD6420FDF7F3FE20B9152170A0A4
:104AF000FBF7A3FD03E0152173A0FBF79EFDFFF775
:104B0000FCFC0120FEF7E9FF20B90D2174A0FBF7A2
:104B100094FD03E00D2176A0FBF78FFD002010BD72
:104B200040000020493243B4D3BBFAB5D8D6B7C948
:104B3000E8D6C3B4EDCEF3A3ACC7EBBDAB41443074
:104B4000B6CBBFDABDD3B5D800000000556E737583
:104B500070706F727465642076657273696F6E3DF4
:104B6000312E300050726F647563742049442065A3
:104B700072726F720000000048616C662053656EAF
:104B800073697469766974792050617274000000E9
:104B9000312E444D50C9E8B1B8B3F5CABCBBAFB370
:104BA000C9B9A600322E444D50C9E8D6C3B4ABB83B
:104BB000D0C6F7B3C9B9A600322E444D50C9E8D6C5
:104BC000C3B4ABB8D0C6F7B4EDCEF300332EC9E80A
:104BD000D6C34649464FB3C9B9A60000332EC9E82B
:104BE000D6C34649464FCAA7B0DC0000342E444D18
:104BF00050C9E8D6C3B2C9D1F9C2CAB3C9B9A6006F
:104C0000342E444D50C9E8D6C3B2C9D1F9C2CACA7C
:104C1000A7B0DC00352E444D50BCD3D4D8D4CBB68D
:104C2000AFC7FDB6AFB9CCBCFEB3C9B9A600000092
:104C3000352E444D50BCD3D4D8D4CBB6AFC7FDB677
:104C4000AFB9CCBCFECAA7B0DC0000003400002025
:104C5000362E444D50CDEAB3C9C9E8D6C3B3F5CA20
:104C6000BCB7BDCFF2C9E8B6A8C6ABB2EE00000033
:104C7000362E444D50C9E8D6C3B3F5CABCB7BDCF34
:104C8000F2C9E8B6A8C6ABB2EEB3F6B4ED000000C8
:104C9000372E444D50CAB9C4DCB3C9B9A6000000D0
:104CA000372E444D50CAB9C4DCB3F6B4ED00000051
:104CB000382E444D50C9E8D6C34649464FCBD9C2D9
:104CC000CAB3C9B9A6000000382E444D50C9E8D671
:104CD000C34649464FCBD9C2CACAA7B0DC000000C0
:104CE000392E446D70C6F4B6AFB3C9B9A600000042
:104CF000392E446D70C6F4B6AFCAA7B0DC00000010
:104D000000BF411E0800FCD1704708B501210820F2
:104D1000FCF79EF84FF44060ADF8000002208DF8DB
:104D2000020014208DF803006946FE48FBF7DAFD07
:104D30004020ADF8000002208DF8020004208DF81C
:104D400003006946F748FBF7CDFD4FF48061F54855
:104D5000FBF773FE4FF40061F248FBF76EFEF2487A
:104D6000FFF7CEFF08BD10B54FF40061ED48FBF72B
:104D700064FE0A20FFF7C4FF4FF48061E948FBF7A7
:104D80005CFE0A20FFF7BCFF4FF40061E548FBF72B
:104D90003AFE08B9012010BD4FF40061E148FBF76D
:104DA0004EFE0A20FFF7ACFF4FF48061DD48FBF7B1
:104DB00046FE0A20FFF7A4FF4FF40061D948FBF735
:104DC00022FE08B10220E6E70020E4E710B54FF428
:104DD0000061D448FBF733FE0A20FFF791FF4FF440
:104DE0008061D048FBF729FE0A20FFF789FF4FF4C6
:104DF0000061CC48FBF721FE0A20FFF781FF10BDC0
:104E000010B54FF40061C748FBF719FE0A20FFF701
:104E100077FF4FF48061C348FBF70FFE0A20FFF7CE
:104E20006FFF4FF48061BF48FBF709FE0A20FFF7D0
:104E300067FF10BD10B54FF40061BA48FBF7FDFDE8
:104E40000A20FFF75DFF4FF48061B648FBF7F5FDE0
:104E50000A20FFF755FF4FF48061B248FBF7EFFDE2
:104E60000A20FFF74DFF10BD70B504464FF4806176
:104E7000AC48FBF7E4FD002524E014F0800F05D0DA
:104E80004FF40061A748FBF7D8FD04E04FF4006140
:104E9000A448FBF7D4FD6006040E0A20FFF730FF9C
:104EA0004FF480619F48FBF7C8FD0A20FFF728FFF9
:104EB0004FF480619B48FBF7C2FD0A20FFF720FFFB
:104EC000681CC5B2082DD8DB4FF400619548FBF78C
:104ED000B4FD0A20FFF714FF4FF480619148FBF7FF
:104EE000ACFD0A20FFF70CFF4FF400618D48FBF783
:104EF0008AFD30B14FF480618A48FBF7A0FD0020A5
:104F000070BD4FF480618748FBF799FD0120F7E7FA
:104F100070B54FF400618348FBF78FFD4FF480615B
:104F20008048FBF78CFD002400251BE04FF48061D6
:104F30007C48FBF782FD0A20FFF7E2FE6006040EC4
:104F40004FF400617748FBF75EFD08B144F00104BF
:104F50004FF480617348FBF772FD0A20FFF7D0FE23
:104F6000681CC5B2082DE1DBFFF764FF204670BD69
:104F700070B54FF400616B48FBF75FFD4FF4806143
:104F80006848FBF75CFD002400251BE04FF48061BE
:104F90006448FBF752FD0A20FFF7B2FE6006040EDC
:104FA0004FF400615F48FBF72EFD08B144F00104A7
:104FB0004FF480615B48FBF742FD0A20FFF7A0FE3B
:104FC000681CC5B2082DE1DBFFF71AFF204670BD53
:104FD0002DE9F041064600272FE04FF400615148CB
:104FE000FBF72BFD4FF480614E48FBF728FD0024B2
:104FF00000251BE04FF480614A48FBF71EFD0A20A4
:10500000FFF77EFE6006040E4FF400614548FBF793
:10501000FAFC08B144F001044FF480614148FBF709
:105020000EFD0A20FFF76CFE681CC5B2082DE1DBFF
:10503000F455FFF7E5FE781CC7B2052FCDDB4FF422
:1050400000613848FBF7F9FC4FF480613548FBF705
:10505000F6FC002400251BE04FF480613148FBF78B
:10506000ECFC0A20FFF74CFE6006040E4FF40061D2
:105070002C48FBF7C8FC08B144F001044FF48061F0
:105080002848FBF7DCFC0A20FFF73AFE681CC5B293
:10509000082DE1DB7471FFF7CDFEBDE8F0812DE94D
:1050A000F041064600272FE04FF400611D48FBF752
:1050B000C4FC4FF480611B48FBF7C1FC00240025B1
:1050C0001BE04FF480611748FBF7B7FC0A20FFF79D
:1050D00017FE6006040E4FF400611248FBF793FCC4
:1050E00008B144F001044FF480610E48FBF7A7FCBF
:1050F0000A20FFF705FE681CC5B2082DE1DBF45558
:10510000FFF77EFE781CC7B20B2FCDDB4FF400619A
:105110000448FBF792FC4FF480610248FBF78FFCD8
:10512000002403E0000C0140A086010000251BE0E4
:105130004FF480617648FBF780FC0A20FFF7E0FD22
:105140006006040E4FF400617148FBF75CFC08B187
:1051500044F001044FF480616D48FBF770FC0A20B5
:10516000FFF7CEFD681CC5B2082DE1DBF472FFF736
:1051700061FEBDE8F0812DE9F041064600272FE0F1
:105180004FF400616248FBF758FC4FF480616048BF
:10519000FBF755FC002400251BE04FF480615C48C0
:1051A000FBF74BFC0A20FFF7ABFD6006040E4FF443
:1051B00000615748FBF727FC08B144F001044FF4A5
:1051C00080615348FBF73BFC0A20FFF799FD681C00
:1051D000C5B2082DE1DBF455FFF712FE781CC7B20B
:1051E0000D2FCDDB4FF400614948FBF726FC4FF44F
:1051F00080614748FBF723FC002400251BE04FF4A7
:1052000080614348FBF719FC0A20FFF779FD60062F
:10521000040E4FF400613E48FBF7F5FB08B144F083
:1052200001044FF480613A48FBF709FC0A20FFF7BC
:1052300067FD681CC5B2082DE1DB7473FFF7FAFD4A
:10524000BDE8F081014605E0002001E0421CD0B23B
:105250000A28FBDB0A00A1F10101F5D1704710B566
:10526000044603E04FF47A70FFF7ECFF2000A4F14E
:105270000104F7D110BD2DE9F04105460E46174651
:105280009846FFF770FD002141EA4501C8B2FFF7DB
:10529000EBFD3046FFF7E8FD002405E018F80400B8
:1052A000FFF7E2FD601CC4B2BC42F7DBFFF78EFDE6
:1052B0000020BDE8F0812DE9F04106460F46144676
:1052C0001D46FFF750FD002141EA4601C8B2FFF735
:1052D000CBFD3846FFF7C8FDFFF745FD012101EB87
:1052E0004601C8B2FFF7C0FD0BE0012C03D1FFF768
:1052F0000FFE287002E0FFF73BFE28706D1C601E59
:10530000C4B2002CF1D1FFF761FD0020BDE8F081AF
:10531000000C01402DE9F04104460F4615461E469B
:1053200021468F48FCF7C4FC39468D48FCF7C2FC87
:1053300029468B48FCF7C0FC31468948FCF7BEFC87
:10534000BDE8F08110B588B0044601210C20FBF7C0
:105350007FFDC020ADF81C0003208DF81E00182032
:105360008DF81F0007A97F48FBF7BCFA0320ADF8B2
:105370001C0007A97C48FBF7B5FA01210220FBF7C6
:1053800074FD601E80B2ADF814004720ADF8100027
:105390000020ADF81600ADF8120004A97048FBF724
:1053A00093FE6020ADF800000120ADF8020000205F
:1053B000ADF80600ADF8080069466948FBF7C1FE84
:1053C00008216748FCF70CFB0120ADF80200002023
:1053D000ADF8060069466248FBF7F5FE0821604813
:1053E000FCF707FB0120ADF802000020ADF8060035
:1053F00069465B48FBF734FF08215948FCF706FB78
:105400000120ADF802000020ADF8060069465448BE
:10541000FBF771FF08215248FCF701FB01215048BE
:10542000FCF7AEFA01214E48FCF7AAF94FF47A7363
:105430001A4619461846FFF76DFF08B010BD70B543
:1054400004462546B5F5FA7F01DB40F2F315322D0F
:1054500000DA3225454890FBF5F086B23046FFF77A
:1054600071FF70BD2DE9F04F85B081460C461546A1
:105470001E46B9F1B40F05DCB42C03DCB42D01DCFD
:10548000B42E02DD05B0BDE8F08F484603F05EFEA5
:10549000019003F071FC0746354A364B03F05CF986
:1054A0000022354BCDE9020102F0D8FE824603F01E
:1054B000E9F880B2014604902948FCF7F9FB204640
:1054C00003F044FE019003F057FC8246284A294B22
:1054D00003F042F907460022274B02F0BFFECDE958
:1054E000020103F0CFF880B2014604901C48FCF79B
:1054F000E1FB284603F02AFE019003F03DFC07463D
:105500001B4A1C4B03F028F900221B4BCDE902017A
:1055100002F0A4FE824603F0B5F880B20146049082
:105520000F48FCF7C9FB304603F010FE019003F072
:1055300023FC07460E4A0F4B03F00EF98246002269
:105540000D4B02F08BFECDE9020103F09BF880B217
:10555000014604900248FCF7B1FB00BF92E700004F
:105560000004004000080140000C014040420F00D0
:1055700046B6F3FDD438264000407F4008B50121EF
:105580001020FBF765FC4FF44060ADF800000320ED
:105590008DF8020010208DF8030069460448FBF7DF
:1055A000A1F94FF440610248FBF747FA08BD00003B
:1055B0000010014000B585B001214805FBF755FCFE
:1055C00001210820FBF744FCC020ADF800000320B7
:1055D0008DF802001C208DF803006946F748FBF7A0
:1055E00081F9F748FCF7AEFD0020ADF808004BF656
:1055F000FF70ADF80A003020ADF80C004FF4806069
:10560000ADF80E000001ADF81000EE480190012148
:10561000EB48FCF72EFE01A9E948FCF7ACFD05B00C
:1056200000BD70B504460D4600BF4FF40031E4489C
:10563000FCF746FF0028F8D10121E148FCF73DFEC8
:1056400000BFE149DE48FCF719FF0028F9D000222D
:105650007821DB48FCF787FE00BFDC49D848FCF71F
:105660000DFF0028F9D02146D548FCF776FE00BF93
:10567000D649891CD248FCF701FF0028F8D02946FA
:10568000CF48FCF76AFE00BFD049891CCC48FCF724
:10569000F5FE0028F8D00121C948FCF71AFE70BDBC
:1056A00010B5044621460020FFF7BBFF10BD10B522
:1056B000044621464020FFF7B4FF10BD10B564201A
:1056C000FAF7D6FEAE20FFF7EBFF2020FFF7E8FF4A
:1056D0001020FFF7E5FFB020FFF7E2FFC820FFF73B
:1056E000DFFF0020FFF7DCFF1020FFF7D9FF40208D
:1056F000FFF7D6FF8120FFF7D3FFFF20FFF7D0FF92
:10570000A120FFF7CDFFA620FFF7CAFFA820FFF7D3
:10571000C7FF3F20FFF7C4FFA420FFF7C1FFD3203E
:10572000FFF7BEFF0020FFF7BBFFD520FFF7B8FF54
:10573000F020FFF7B5FFD920FFF7B2FF2220FFF7D7
:10574000AFFFDA20FFF7ACFF1220FFF7A9FFDB2045
:10575000FFF7A6FF2020FFF7A3FF8D20FFF7A0FF94
:105760001420FFF79DFFAF20FFF79AFF10BD70B523
:1057700004460D4605F1B001C8B2FFF791FF1021B4
:1057800041EA1410FFF78CFF04F00F0141F0010013
:10579000FFF786FF70BD70B50646002415E004F1E2
:1057A000B001C8B2FFF77CFF0020FFF779FF10209F
:1057B000FFF776FF002504E03046FFF778FF681C0E
:1057C000C5B2802DF8DB601CC4B2082CE7DB70BDCD
:1057D00010B50020FFF7DFFF10BD10B58D20FFF7DB
:1057E0005FFF1420FFF75CFFAF20FFF759FF10BDEC
:1057F00010B58D20FFF754FF1020FFF751FFAE20AA
:10580000FFF74EFF10BD2DE9F047064689461746C3
:105810009A464FF0000800240025BAF1010F03D08A
:10582000BAF1020F5ED125E020E0785D203800F06B
:10583000FF087E2E04DD002609F1010000F0FF09BB
:1058400049463046FFF793FF002409E008EB480182
:105850005F4A02EB4101085DFFF729FF601CC4B2FB
:10586000062CF3DBB01DC6B2681CC5B2785D0028FB
:10587000DBD137E032E0785D203800F0FF08782E89
:1058800004DD002609F1010000F0FF094946304619
:10589000FFF76DFF002407E004EB08114D4A505C50
:1058A000FFF705FF601CC4B2082CF5DB09F101000D
:1058B000C1B23046FFF75BFF002408E004EB08119B
:1058C0000831444A505CFFF7F2FE601CC4B2082C59
:1058D000F4DB06F10800C6B2681CC5B2785D00288A
:1058E000C9D100BF00BFBDE8F0872DE9F041804677
:1058F0000E46174600247D0131464046FFF737FF2C
:1059000000BF06E03449485DFFF7D1FE6D1C601C06
:10591000C4B2102CF6DB701CC1B24046FFF727FF63
:10592000002406E02C49485DFFF7C1FE6D1C601C99
:10593000C4B2102CF6DBBDE8F0812DE9F05F06461D
:105940000F4690461C46DDF828A04FF0000BE117EB
:1059500004EB5171C910B4EBC10106D12046E11727
:1059600004EB5171C1F3C70506E02046E11704EBD3
:105970005171C910491CCDB23D4614E0294630464C
:10598000FFF7F5FEB1460AE059460BF1010B1AF894
:105990000100FFF78CFE09F1010000F0FF09C1458D
:1059A000F2DB681CC5B2A542E8DBBDE8F09F38B564
:1059B00005460AA000680090002422E0000C014087
:1059C00000540040801A0600010003008200070016
:1059D000B8A20008E0A400086C00002030303000BD
:1059E0000A2095FBF0F100FB11503030C0B2C4F139
:1059F00002010DF801000A2095FBF0F0C5B2601C11
:105A0000C4B2002DECD106E02020C4F102010DF853
:105A10000100601CC4B2032CF6D19DF802002028BE
:105A200002D130208DF8020002236A4604213C2076
:105A3000FFF7E9FE38BD000001B502E00098401E06
:105A4000009000980028F9D108BD08B501210C206C
:105A5000FBF7FEF92020ADF8000048208DF8030088
:105A600069463748FAF73EFF4FF48050ADF8000022
:105A700048208DF8030069463248FAF733FFF020DA
:105A8000ADF8000048208DF8030069462E48FAF76B
:105A900029FF08BD70B505460E4614463146284616
:105AA000FAF7B1FFA04214D142F21070FFF7C4FF21
:105AB00031462846FAF7A7FFA04208D100BF314679
:105AC0002846FAF7A0FFA042F9D0002070BD0120BF
:105AD000FCE70120FAE710B5002220211848FFF763
